:020000020000fc
:0100000003fc
:0100010001fd
:0100020002fb
:0100030001fb
:0100040003f8
:0100050000fa
:0100060001f8
:0100070003f5
:0100080002f5
:0100090001f5
:01000a0001f4
:01000b0000f4
:01000c0000f3
:01000d0000f2
:01000e0001f0
:01000f0001ef
:0100100001ee
:0100110002ec
:0100120001ec
:0100130003e9
:0100140001ea
:0100150001e9
:0100160002e7
:0100170000e8
:0100180000e7
:0100190002e4
:01001a0000e5
:01001b0003e1
:01001c0001e2
:01001d0001e1
:01001e0002df
:01001f0002de
:0100200002dd
:0100210002dc
:0100220000dd
:0100230003d9
:0100240001da
:0100250002d8
:0100260003d6
:0100270001d7
:0100280002d5
:0100290000d6
:01002a0000d5
:01002b0000d4
:01002c0001d2
:01002d0003cf
:01002e0002cf
:01002f0000d0
:0100300000cf
:0100310001cd
:0100320000cd
:0100330002ca
:0100340000cb
:0100350001c9
:0100360001c8
:0100370003c5
:0100380002c5
:0100390002c4
:01003a0003c2
:01003b0001c3
:01003c0003c0
:01003d0002c0
:01003e0001c0
:01003f0001bf
:0100400003bc
:0100410001bd
:0100420002bb
:0100430000bc
:0100440001ba
:0100450000ba
:0100460003b6
:0100470003b5
:0100480002b5
:0100490003b3
:01004a0001b4
:01004b0003b1
:01004c0002b1
:01004d0000b2
:01004e0002af
:01004f0002ae
:0100500002ad
:0100510000ae
:0100520001ac
:0100530001ab
:0100540000ab
:0100550002a8
:0100560002a7
:0100570001a7
:0100580001a6
:0100590002a4
:01005a0002a3
:01005b0003a1
:01005c0001a2
:01005d00039f
:01005e00029f
:01005f00029e
:01006000029d
:01006100019d
:01006200009d
:01006300009c
:01006400009b
:01006500009a
:010066000198
:010067000098
:010068000394
:010069000096
:01006a000095
:01006b000193
:01006c000192
:01006d000092
:01006e00038e
:01006f00038d
:01007000008f
:01007100008e
:01007200028b
:01007300008c
:010074000388
:01007500008a
:010076000089
:010077000187
:010078000087
:010079000383
:01007a000184
:01007b000381
:01007c000083
:01007d000181
:01007e00037e
:01007f00037d
:01008000007f
:01008100017d
:01008200007d
:01008300027a
:01008400017a
:010085000179
:010086000277
:010087000177
:010088000077
:010089000373
:01008a000372
:01008b000371
:01008c000370
:01008d000171
:01008e00026f
:01008f000070
:01009000006f
:01009100006e
:01009200036a
:01009300016b
:01009400006b
:010095000367
:010096000168
:010097000266
:010098000166
:010099000264
:01009a000164
:01009b000064
:01009c000162
:01009d00035f
:01009e000061
:01009f000060
:0100a000035c
:0100a100025c
:0100a200005d
:0100a3000359
:0100a400015a
:0100a5000357
:0100a6000059
:0100a7000157
:0100a8000156
:0100a9000353
:0100aa000055
:0100ab000351
:0100ac000152
:0100ad00034f
:0100ae000150
:0100af00024e
:0100b000004f
:0100b100034b
:0100b200014c
:0100b300024a
:0100b4000249
:0100b5000149
:0100b6000148
:0100b7000246
:0100b8000146
:0100b9000244
:0100ba000342
:0100bb000143
:0100bc000241
:0100bd000141
:0100be000041
:0100bf000040
:0100c000023d
:0100c100033b
:0100c200023b
:0100c300013b
:0100c400003b
:0100c5000139
:0100c6000336
:0100c7000137
:0100c8000136
:0100c9000135
:0100ca000134
:0100cb000034
:0100cc000330
:0100cd000032
:0100ce000031
:0100cf000030
:0100d000012e
:0100d100012d
:0100d200032a
:0100d3000329
:0100d4000328
:0100d5000129
:0100d6000326
:0100d7000028
:0100d8000027
:0100d9000224
:0100da000025
:0100db000321
:0100dc000221
:0100dd00031f
:0100de00021f
:0100df00011f
:0100e000031c
:0100e100001e
:0100e200001d
:0100e300001c
:0100e400011a
:0100e500001a
:0100e6000316
:0100e7000216
:0100e8000314
:0100e9000313
:0100ea000015
:0100eb000212
:0100ec000013
:0100ed000210
:0100ee00030e
:0100ef00020e
:0100f000020d
:0100f100020c
:0100f200020b
:0100f300000c
:0100f4000308
:0100f5000109
:0100f6000207
:0100f7000107
:0100f8000304
:0100f9000006
:0100fa000005
:0100fb000301
:0100fc000003
:0100fd0003ff
:0100fe0003fe
:0100ff0001ff
:00000001FF
